{
	"contract/valueType.sol": {
		"varibleType": {
			"abi": [
				{
					"inputs": [],
					"name": "_byte12",
					"outputs": [
						{
							"internalType": "bytes12",
							"name": "",
							"type": "bytes12"
						}
					],
					"stateMutability": "view",
					"type": "function"
				},
				{
					"inputs": [],
					"name": "_byte32",
					"outputs": [
						{
							"internalType": "bytes32",
							"name": "",
							"type": "bytes32"
						}
					],
					"stateMutability": "view",
					"type": "function"
				},
				{
					"inputs": [],
					"name": "ad",
					"outputs": [
						{
							"internalType": "address",
							"name": "",
							"type": "address"
						}
					],
					"stateMutability": "view",
					"type": "function"
				},
				{
					"inputs": [],
					"name": "ad1",
					"outputs": [
						{
							"internalType": "address payable",
							"name": "",
							"type": "address"
						}
					],
					"stateMutability": "view",
					"type": "function"
				},
				{
					"inputs": [],
					"name": "b1",
					"outputs": [
						{
							"internalType": "bytes1",
							"name": "",
							"type": "bytes1"
						}
					],
					"stateMutability": "view",
					"type": "function"
				},
				{
					"inputs": [],
					"name": "b2",
					"outputs": [
						{
							"internalType": "bytes1",
							"name": "",
							"type": "bytes1"
						}
					],
					"stateMutability": "view",
					"type": "function"
				},
				{
					"inputs": [],
					"name": "balance",
					"outputs": [
						{
							"internalType": "uint256",
							"name": "",
							"type": "uint256"
						}
					],
					"stateMutability": "view",
					"type": "function"
				},
				{
					"inputs": [],
					"name": "e",
					"outputs": [
						{
							"internalType": "bool",
							"name": "",
							"type": "bool"
						}
					],
					"stateMutability": "view",
					"type": "function"
				},
				{
					"inputs": [],
					"name": "enumToUint",
					"outputs": [
						{
							"internalType": "uint256",
							"name": "",
							"type": "uint256"
						}
					],
					"stateMutability": "view",
					"type": "function"
				},
				{
					"inputs": [],
					"name": "isOpen",
					"outputs": [
						{
							"internalType": "bool",
							"name": "",
							"type": "bool"
						}
					],
					"stateMutability": "view",
					"type": "function"
				},
				{
					"inputs": [],
					"name": "num1",
					"outputs": [
						{
							"internalType": "int256",
							"name": "",
							"type": "int256"
						}
					],
					"stateMutability": "view",
					"type": "function"
				},
				{
					"inputs": [],
					"name": "num2",
					"outputs": [
						{
							"internalType": "uint256",
							"name": "",
							"type": "uint256"
						}
					],
					"stateMutability": "view",
					"type": "function"
				},
				{
					"inputs": [],
					"name": "num3",
					"outputs": [
						{
							"internalType": "uint256",
							"name": "",
							"type": "uint256"
						}
					],
					"stateMutability": "view",
					"type": "function"
				},
				{
					"inputs": [],
					"name": "total",
					"outputs": [
						{
							"internalType": "int256",
							"name": "",
							"type": "int256"
						}
					],
					"stateMutability": "view",
					"type": "function"
				}
			],
			"devdoc": {
				"kind": "dev",
				"methods": {},
				"version": 1
			},
			"evm": {
				"assembly": "    /* \"contract/valueType.sol\":58:1416  contract varibleType{... */\n  mstore(0x40, 0x80)\n    /* \"contract/valueType.sol\":118:122  true */\n  0x01\n    /* \"contract/valueType.sol\":97:122  bool public isOpen = true */\n  0x00\n  dup1\n  0x0100\n  exp\n  dup2\n  sload\n  dup2\n  0xff\n  mul\n  not\n  and\n  swap1\n  dup4\n  iszero\n  iszero\n  mul\n  or\n  swap1\n  sstore\n  pop\n    /* \"contract/valueType.sol\":165:167  -1 */\n  0xffffffffffffffffffffffffffffffffffffffffffffffffffffffffffffffff\n    /* \"contract/valueType.sol\":147:167  int public num1 = -1 */\n  0x01\n  sstore\n    /* \"contract/valueType.sol\":216:217  2 */\n  0x02\n    /* \"contract/valueType.sol\":197:217  uint public num2 = 2 */\n  dup1\n  sstore\n    /* \"contract/valueType.sol\":257:258  2 */\n  0x02\n    /* \"contract/valueType.sol\":235:258  uint256 public num3 = 2 */\n  0x03\n  sstore\n    /* \"contract/valueType.sol\":306:310  num3 */\n  sload(0x03)\n    /* \"contract/valueType.sol\":298:302  num2 */\n  sload(0x02)\n    /* \"contract/valueType.sol\":298:310  num2 == num3 */\n  eq\n    /* \"contract/valueType.sol\":282:310  bool public e = num2 == num3 */\n  0x04\n  exp(0x0100, 0x00)\n  dup2\n  sload\n  dup2\n  0xff\n  mul\n  not\n  and\n  swap1\n  dup4\n  iszero\n  iszero\n  mul\n  or\n  swap1\n  sstore\n  pop\n    /* \"contract/valueType.sol\":347:351  num2 */\n  sload(0x02)\n    /* \"contract/valueType.sol\":336:340  num1 */\n  sload(0x01)\n    /* \"contract/valueType.sol\":336:352  num1 + int(num2) */\n  tag_1\n  swap2\n  swap1\n  tag_2\n  jump\t// in\ntag_1:\n    /* \"contract/valueType.sol\":317:352  int public total = num1 + int(num2) */\n  0x05\n  sstore\n    /* \"contract/valueType.sol\":402:444  0x17F6AD8Ef982297579C203069C1DbfFE4348c372 */\n  0x17f6ad8ef982297579c203069c1dbffe4348c372\n    /* \"contract/valueType.sol\":382:444  address public ad = 0x17F6AD8Ef982297579C203069C1DbfFE4348c372 */\n  0x06\n  exp(0x0100, 0x00)\n  dup2\n  sload\n  dup2\n  0xffffffffffffffffffffffffffffffffffffffff\n  mul\n  not\n  and\n  swap1\n  dup4\n  0xffffffffffffffffffffffffffffffffffffffff\n  and\n  mul\n  or\n  swap1\n  sstore\n  pop\n    /* \"contract/valueType.sol\":488:490  ad */\n  0x06\n  0x00\n  swap1\n  sload\n  swap1\n  0x0100\n  exp\n  swap1\n  div\n  0xffffffffffffffffffffffffffffffffffffffff\n  and\n    /* \"contract/valueType.sol\":450:491  address payable public ad1 = payable (ad) */\n  0x07\n  exp(0x0100, 0x00)\n  dup2\n  sload\n  dup2\n  0xffffffffffffffffffffffffffffffffffffffff\n  mul\n  not\n  and\n  swap1\n  dup4\n  0xffffffffffffffffffffffffffffffffffffffff\n  and\n  mul\n  or\n  swap1\n  sstore\n  pop\n    /* \"contract/valueType.sol\":597:600  ad1 */\n  0x07\n  0x00\n  swap1\n  sload\n  swap1\n  0x0100\n  exp\n  swap1\n  div\n  0xffffffffffffffffffffffffffffffffffffffff\n  and\n    /* \"contract/valueType.sol\":597:608  ad1.balance */\n  0xffffffffffffffffffffffffffffffffffffffff\n  and\n  balance\n    /* \"contract/valueType.sol\":572:608  uint256 public balance = ad1.balance */\n  0x08\n  sstore\n    /* \"contract/valueType.sol\":672:711  bytes32 public _byte32 = \"MiniSolidity\" */\n  sstore(0x09, 0x4d696e69536f6c69646974790000000000000000000000000000000000000000)\n    /* \"contract/valueType.sol\":737:744  _byte32 */\n  sload(0x09)\n    /* \"contract/valueType.sol\":745:746  2 */\n  0x02\n    /* \"contract/valueType.sol\":737:747  _byte32[2] */\n  0x20\n  dup2\n  lt\n  tag_3\n  jumpi\n  tag_4\n  tag_5\n  jump\t// in\ntag_4:\ntag_3:\n  byte\n  0xf8\n  shl\n    /* \"contract/valueType.sol\":718:747  bytes1 public b1 = _byte32[2] */\n  0x0a\n  exp(0x0100, 0x00)\n  dup2\n  sload\n  dup2\n  0xff\n  mul\n  not\n  and\n  swap1\n  dup4\n  0xf8\n  shr\n  mul\n  or\n  swap1\n  sstore\n  pop\n    /* \"contract/valueType.sol\":1027:1066  bytes12 public _byte12 = \"MiniSolidity\" */\n  0x4d696e69536f6c69646974790000000000000000000000000000000000000000\n  0x0a\n  exp(0x0100, 0x01)\n  dup2\n  sload\n  dup2\n  0xffffffffffffffffffffffff\n  mul\n  not\n  and\n  swap1\n  dup4\n  0xa0\n  shr\n  mul\n  or\n  swap1\n  sstore\n  pop\n    /* \"contract/valueType.sol\":1092:1099  _byte32 */\n  sload(0x09)\n    /* \"contract/valueType.sol\":1100:1101  2 */\n  0x02\n    /* \"contract/valueType.sol\":1092:1102  _byte32[2] */\n  0x20\n  dup2\n  lt\n  tag_6\n  jumpi\n  tag_7\n  tag_5\n  jump\t// in\ntag_7:\ntag_6:\n  byte\n  0xf8\n  shl\n    /* \"contract/valueType.sol\":1073:1102  bytes1 public b2 = _byte32[2] */\n  0x0a\n  exp(0x0100, 0x0d)\n  dup2\n  sload\n  dup2\n  0xff\n  mul\n  not\n  and\n  swap1\n  dup4\n  0xf8\n  shr\n  mul\n  or\n  swap1\n  sstore\n  pop\n    /* \"contract/valueType.sol\":1269:1282  ActionSet.Buy */\n  0x00\n    /* \"contract/valueType.sol\":1250:1282  ActionSet action = ActionSet.Buy */\n  0x0a\n  exp(0x0100, 0x0e)\n  dup2\n  sload\n  dup2\n  0xff\n  mul\n  not\n  and\n  swap1\n  dup4\n  0x02\n  dup2\n  gt\n  iszero\n  tag_8\n  jumpi\n  tag_9\n  tag_10\n  jump\t// in\ntag_9:\ntag_8:\n  mul\n  or\n  swap1\n  sstore\n  pop\n    /* \"contract/valueType.sol\":58:1416  contract varibleType{... */\n  callvalue\n  dup1\n  iszero\n  tag_11\n  jumpi\n  0x00\n  dup1\n  revert\ntag_11:\n  pop\n  jump(tag_12)\n    /* \"#utility.yul\":7:83   */\ntag_13:\n    /* \"#utility.yul\":43:50   */\n  0x00\n    /* \"#utility.yul\":72:77   */\n  dup2\n    /* \"#utility.yul\":61:77   */\n  swap1\n  pop\n    /* \"#utility.yul\":7:83   */\n  swap2\n  swap1\n  pop\n  jump\t// out\n    /* \"#utility.yul\":89:269   */\ntag_14:\n    /* \"#utility.yul\":137:214   */\n  0x4e487b7100000000000000000000000000000000000000000000000000000000\n    /* \"#utility.yul\":134:135   */\n  0x00\n    /* \"#utility.yul\":127:215   */\n  mstore\n    /* \"#utility.yul\":234:238   */\n  0x11\n    /* \"#utility.yul\":231:232   */\n  0x04\n    /* \"#utility.yul\":224:239   */\n  mstore\n    /* \"#utility.yul\":258:262   */\n  0x24\n    /* \"#utility.yul\":255:256   */\n  0x00\n    /* \"#utility.yul\":248:263   */\n  revert\n    /* \"#utility.yul\":275:650   */\ntag_2:\n    /* \"#utility.yul\":314:317   */\n  0x00\n    /* \"#utility.yul\":333:352   */\n  tag_19\n    /* \"#utility.yul\":350:351   */\n  dup3\n    /* \"#utility.yul\":333:352   */\n  tag_13\n  jump\t// in\ntag_19:\n    /* \"#utility.yul\":328:352   */\n  swap2\n  pop\n    /* \"#utility.yul\":366:385   */\n  tag_20\n    /* \"#utility.yul\":383:384   */\n  dup4\n    /* \"#utility.yul\":366:385   */\n  tag_13\n  jump\t// in\ntag_20:\n    /* \"#utility.yul\":361:385   */\n  swap3\n  pop\n    /* \"#utility.yul\":408:409   */\n  dup3\n    /* \"#utility.yul\":405:406   */\n  dup3\n    /* \"#utility.yul\":401:410   */\n  add\n    /* \"#utility.yul\":394:410   */\n  swap1\n  pop\n    /* \"#utility.yul\":606:607   */\n  dup3\n    /* \"#utility.yul\":601:604   */\n  dup2\n    /* \"#utility.yul\":597:608   */\n  slt\n    /* \"#utility.yul\":590:609   */\n  iszero\n    /* \"#utility.yul\":586:587   */\n  0x00\n    /* \"#utility.yul\":583:584   */\n  dup4\n    /* \"#utility.yul\":579:588   */\n  slt\n    /* \"#utility.yul\":575:610   */\n  and\n    /* \"#utility.yul\":558:559   */\n  dup4\n    /* \"#utility.yul\":553:556   */\n  dup3\n    /* \"#utility.yul\":549:560   */\n  slt\n    /* \"#utility.yul\":544:545   */\n  0x00\n    /* \"#utility.yul\":541:542   */\n  dup5\n    /* \"#utility.yul\":537:546   */\n  slt\n    /* \"#utility.yul\":530:547   */\n  iszero\n    /* \"#utility.yul\":526:561   */\n  and\n    /* \"#utility.yul\":510:620   */\n  or\n    /* \"#utility.yul\":507:643   */\n  iszero\n  tag_21\n  jumpi\n    /* \"#utility.yul\":623:641   */\n  tag_22\n  tag_14\n  jump\t// in\ntag_22:\n    /* \"#utility.yul\":507:643   */\ntag_21:\n    /* \"#utility.yul\":275:650   */\n  swap3\n  swap2\n  pop\n  pop\n  jump\t// out\n    /* \"#utility.yul\":656:836   */\ntag_5:\n    /* \"#utility.yul\":704:781   */\n  0x4e487b7100000000000000000000000000000000000000000000000000000000\n    /* \"#utility.yul\":701:702   */\n  0x00\n    /* \"#utility.yul\":694:782   */\n  mstore\n    /* \"#utility.yul\":801:805   */\n  0x32\n    /* \"#utility.yul\":798:799   */\n  0x04\n    /* \"#utility.yul\":791:806   */\n  mstore\n    /* \"#utility.yul\":825:829   */\n  0x24\n    /* \"#utility.yul\":822:823   */\n  0x00\n    /* \"#utility.yul\":815:830   */\n  revert\n    /* \"#utility.yul\":842:1022   */\ntag_10:\n    /* \"#utility.yul\":890:967   */\n  0x4e487b7100000000000000000000000000000000000000000000000000000000\n    /* \"#utility.yul\":887:888   */\n  0x00\n    /* \"#utility.yul\":880:968   */\n  mstore\n    /* \"#utility.yul\":987:991   */\n  0x21\n    /* \"#utility.yul\":984:985   */\n  0x04\n    /* \"#utility.yul\":977:992   */\n  mstore\n    /* \"#utility.yul\":1011:1015   */\n  0x24\n    /* \"#utility.yul\":1008:1009   */\n  0x00\n    /* \"#utility.yul\":1001:1016   */\n  revert\n    /* \"contract/valueType.sol\":58:1416  contract varibleType{... */\ntag_12:\n  dataSize(sub_0)\n  dup1\n  dataOffset(sub_0)\n  0x00\n  codecopy\n  0x00\n  return\nstop\n\nsub_0: assembly {\n        /* \"contract/valueType.sol\":58:1416  contract varibleType{... */\n      mstore(0x40, 0x80)\n      callvalue\n      dup1\n      iszero\n      tag_1\n      jumpi\n      0x00\n      dup1\n      revert\n    tag_1:\n      pop\n      jumpi(tag_2, lt(calldatasize, 0x04))\n      shr(0xe0, calldataload(0x00))\n      dup1\n      0x47535d7b\n      gt\n      tag_17\n      jumpi\n      dup1\n      0xab43f8cd\n      gt\n      tag_18\n      jumpi\n      dup1\n      0xab43f8cd\n      eq\n      tag_13\n      jumpi\n      dup1\n      0xb69ef8a8\n      eq\n      tag_14\n      jumpi\n      dup1\n      0xee495002\n      eq\n      tag_15\n      jumpi\n      dup1\n      0xffae15ba\n      eq\n      tag_16\n      jumpi\n      jump(tag_2)\n    tag_18:\n      dup1\n      0x47535d7b\n      eq\n      tag_10\n      jumpi\n      dup1\n      0x5edb78a7\n      eq\n      tag_11\n      jumpi\n      dup1\n      0xa531f36a\n      eq\n      tag_12\n      jumpi\n      jump(tag_2)\n    tag_17:\n      dup1\n      0x2ddbd13a\n      gt\n      tag_19\n      jumpi\n      dup1\n      0x2ddbd13a\n      eq\n      tag_6\n      jumpi\n      dup1\n      0x3b9eac4b\n      eq\n      tag_7\n      jumpi\n      dup1\n      0x3e1430af\n      eq\n      tag_8\n      jumpi\n      dup1\n      0x3f346102\n      eq\n      tag_9\n      jumpi\n      jump(tag_2)\n    tag_19:\n      dup1\n      0x01019958\n      eq\n      tag_3\n      jumpi\n      dup1\n      0x0add6ef2\n      eq\n      tag_4\n      jumpi\n      dup1\n      0x15d4266c\n      eq\n      tag_5\n      jumpi\n    tag_2:\n      0x00\n      dup1\n      revert\n        /* \"contract/valueType.sol\":1329:1414  function enumToUint() external view returns(uint){... */\n    tag_3:\n      tag_20\n      tag_21\n      jump\t// in\n    tag_20:\n      mload(0x40)\n      tag_22\n      swap2\n      swap1\n      tag_23\n      jump\t// in\n    tag_22:\n      mload(0x40)\n      dup1\n      swap2\n      sub\n      swap1\n      return\n        /* \"contract/valueType.sol\":1073:1102  bytes1 public b2 = _byte32[2] */\n    tag_4:\n      tag_24\n      tag_25\n      jump\t// in\n    tag_24:\n      mload(0x40)\n      tag_26\n      swap2\n      swap1\n      tag_27\n      jump\t// in\n    tag_26:\n      mload(0x40)\n      dup1\n      swap2\n      sub\n      swap1\n      return\n        /* \"contract/valueType.sol\":197:217  uint public num2 = 2 */\n    tag_5:\n      tag_28\n      tag_29\n      jump\t// in\n    tag_28:\n      mload(0x40)\n      tag_30\n      swap2\n      swap1\n      tag_23\n      jump\t// in\n    tag_30:\n      mload(0x40)\n      dup1\n      swap2\n      sub\n      swap1\n      return\n        /* \"contract/valueType.sol\":317:352  int public total = num1 + int(num2) */\n    tag_6:\n      tag_31\n      tag_32\n      jump\t// in\n    tag_31:\n      mload(0x40)\n      tag_33\n      swap2\n      swap1\n      tag_34\n      jump\t// in\n    tag_33:\n      mload(0x40)\n      dup1\n      swap2\n      sub\n      swap1\n      return\n        /* \"contract/valueType.sol\":147:167  int public num1 = -1 */\n    tag_7:\n      tag_35\n      tag_36\n      jump\t// in\n    tag_35:\n      mload(0x40)\n      tag_37\n      swap2\n      swap1\n      tag_34\n      jump\t// in\n    tag_37:\n      mload(0x40)\n      dup1\n      swap2\n      sub\n      swap1\n      return\n        /* \"contract/valueType.sol\":382:444  address public ad = 0x17F6AD8Ef982297579C203069C1DbfFE4348c372 */\n    tag_8:\n      tag_38\n      tag_39\n      jump\t// in\n    tag_38:\n      mload(0x40)\n      tag_40\n      swap2\n      swap1\n      tag_41\n      jump\t// in\n    tag_40:\n      mload(0x40)\n      dup1\n      swap2\n      sub\n      swap1\n      return\n        /* \"contract/valueType.sol\":672:711  bytes32 public _byte32 = \"MiniSolidity\" */\n    tag_9:\n      tag_42\n      tag_43\n      jump\t// in\n    tag_42:\n      mload(0x40)\n      tag_44\n      swap2\n      swap1\n      tag_45\n      jump\t// in\n    tag_44:\n      mload(0x40)\n      dup1\n      swap2\n      sub\n      swap1\n      return\n        /* \"contract/valueType.sol\":97:122  bool public isOpen = true */\n    tag_10:\n      tag_46\n      tag_47\n      jump\t// in\n    tag_46:\n      mload(0x40)\n      tag_48\n      swap2\n      swap1\n      tag_49\n      jump\t// in\n    tag_48:\n      mload(0x40)\n      dup1\n      swap2\n      sub\n      swap1\n      return\n        /* \"contract/valueType.sol\":1027:1066  bytes12 public _byte12 = \"MiniSolidity\" */\n    tag_11:\n      tag_50\n      tag_51\n      jump\t// in\n    tag_50:\n      mload(0x40)\n      tag_52\n      swap2\n      swap1\n      tag_53\n      jump\t// in\n    tag_52:\n      mload(0x40)\n      dup1\n      swap2\n      sub\n      swap1\n      return\n        /* \"contract/valueType.sol\":235:258  uint256 public num3 = 2 */\n    tag_12:\n      tag_54\n      tag_55\n      jump\t// in\n    tag_54:\n      mload(0x40)\n      tag_56\n      swap2\n      swap1\n      tag_23\n      jump\t// in\n    tag_56:\n      mload(0x40)\n      dup1\n      swap2\n      sub\n      swap1\n      return\n        /* \"contract/valueType.sol\":450:491  address payable public ad1 = payable (ad) */\n    tag_13:\n      tag_57\n      tag_58\n      jump\t// in\n    tag_57:\n      mload(0x40)\n      tag_59\n      swap2\n      swap1\n      tag_60\n      jump\t// in\n    tag_59:\n      mload(0x40)\n      dup1\n      swap2\n      sub\n      swap1\n      return\n        /* \"contract/valueType.sol\":572:608  uint256 public balance = ad1.balance */\n    tag_14:\n      tag_61\n      tag_62\n      jump\t// in\n    tag_61:\n      mload(0x40)\n      tag_63\n      swap2\n      swap1\n      tag_23\n      jump\t// in\n    tag_63:\n      mload(0x40)\n      dup1\n      swap2\n      sub\n      swap1\n      return\n        /* \"contract/valueType.sol\":718:747  bytes1 public b1 = _byte32[2] */\n    tag_15:\n      tag_64\n      tag_65\n      jump\t// in\n    tag_64:\n      mload(0x40)\n      tag_66\n      swap2\n      swap1\n      tag_27\n      jump\t// in\n    tag_66:\n      mload(0x40)\n      dup1\n      swap2\n      sub\n      swap1\n      return\n        /* \"contract/valueType.sol\":282:310  bool public e = num2 == num3 */\n    tag_16:\n      tag_67\n      tag_68\n      jump\t// in\n    tag_67:\n      mload(0x40)\n      tag_69\n      swap2\n      swap1\n      tag_49\n      jump\t// in\n    tag_69:\n      mload(0x40)\n      dup1\n      swap2\n      sub\n      swap1\n      return\n        /* \"contract/valueType.sol\":1329:1414  function enumToUint() external view returns(uint){... */\n    tag_21:\n        /* \"contract/valueType.sol\":1373:1377  uint */\n      0x00\n        /* \"contract/valueType.sol\":1400:1406  action */\n      0x0a\n      0x0e\n      swap1\n      sload\n      swap1\n      0x0100\n      exp\n      swap1\n      div\n      0xff\n      and\n        /* \"contract/valueType.sol\":1395:1407  uint(action) */\n      0x02\n      dup2\n      gt\n      iszero\n      tag_71\n      jumpi\n      tag_72\n      tag_73\n      jump\t// in\n    tag_72:\n    tag_71:\n        /* \"contract/valueType.sol\":1388:1407  return uint(action) */\n      swap1\n      pop\n        /* \"contract/valueType.sol\":1329:1414  function enumToUint() external view returns(uint){... */\n      swap1\n      jump\t// out\n        /* \"contract/valueType.sol\":1073:1102  bytes1 public b2 = _byte32[2] */\n    tag_25:\n      0x0a\n      0x0d\n      swap1\n      sload\n      swap1\n      0x0100\n      exp\n      swap1\n      div\n      0xf8\n      shl\n      dup2\n      jump\t// out\n        /* \"contract/valueType.sol\":197:217  uint public num2 = 2 */\n    tag_29:\n      sload(0x02)\n      dup2\n      jump\t// out\n        /* \"contract/valueType.sol\":317:352  int public total = num1 + int(num2) */\n    tag_32:\n      sload(0x05)\n      dup2\n      jump\t// out\n        /* \"contract/valueType.sol\":147:167  int public num1 = -1 */\n    tag_36:\n      sload(0x01)\n      dup2\n      jump\t// out\n        /* \"contract/valueType.sol\":382:444  address public ad = 0x17F6AD8Ef982297579C203069C1DbfFE4348c372 */\n    tag_39:\n      0x06\n      0x00\n      swap1\n      sload\n      swap1\n      0x0100\n      exp\n      swap1\n      div\n      0xffffffffffffffffffffffffffffffffffffffff\n      and\n      dup2\n      jump\t// out\n        /* \"contract/valueType.sol\":672:711  bytes32 public _byte32 = \"MiniSolidity\" */\n    tag_43:\n      sload(0x09)\n      dup2\n      jump\t// out\n        /* \"contract/valueType.sol\":97:122  bool public isOpen = true */\n    tag_47:\n      0x00\n      dup1\n      sload\n      swap1\n      0x0100\n      exp\n      swap1\n      div\n      0xff\n      and\n      dup2\n      jump\t// out\n        /* \"contract/valueType.sol\":1027:1066  bytes12 public _byte12 = \"MiniSolidity\" */\n    tag_51:\n      0x0a\n      0x01\n      swap1\n      sload\n      swap1\n      0x0100\n      exp\n      swap1\n      div\n      0xa0\n      shl\n      dup2\n      jump\t// out\n        /* \"contract/valueType.sol\":235:258  uint256 public num3 = 2 */\n    tag_55:\n      sload(0x03)\n      dup2\n      jump\t// out\n        /* \"contract/valueType.sol\":450:491  address payable public ad1 = payable (ad) */\n    tag_58:\n      0x07\n      0x00\n      swap1\n      sload\n      swap1\n      0x0100\n      exp\n      swap1\n      div\n      0xffffffffffffffffffffffffffffffffffffffff\n      and\n      dup2\n      jump\t// out\n        /* \"contract/valueType.sol\":572:608  uint256 public balance = ad1.balance */\n    tag_62:\n      sload(0x08)\n      dup2\n      jump\t// out\n        /* \"contract/valueType.sol\":718:747  bytes1 public b1 = _byte32[2] */\n    tag_65:\n      0x0a\n      0x00\n      swap1\n      sload\n      swap1\n      0x0100\n      exp\n      swap1\n      div\n      0xf8\n      shl\n      dup2\n      jump\t// out\n        /* \"contract/valueType.sol\":282:310  bool public e = num2 == num3 */\n    tag_68:\n      0x04\n      0x00\n      swap1\n      sload\n      swap1\n      0x0100\n      exp\n      swap1\n      div\n      0xff\n      and\n      dup2\n      jump\t// out\n        /* \"#utility.yul\":7:84   */\n    tag_74:\n        /* \"#utility.yul\":44:51   */\n      0x00\n        /* \"#utility.yul\":73:78   */\n      dup2\n        /* \"#utility.yul\":62:78   */\n      swap1\n      pop\n        /* \"#utility.yul\":7:84   */\n      swap2\n      swap1\n      pop\n      jump\t// out\n        /* \"#utility.yul\":90:208   */\n    tag_75:\n        /* \"#utility.yul\":177:201   */\n      tag_94\n        /* \"#utility.yul\":195:200   */\n      dup2\n        /* \"#utility.yul\":177:201   */\n      tag_74\n      jump\t// in\n    tag_94:\n        /* \"#utility.yul\":172:175   */\n      dup3\n        /* \"#utility.yul\":165:202   */\n      mstore\n        /* \"#utility.yul\":90:208   */\n      pop\n      pop\n      jump\t// out\n        /* \"#utility.yul\":214:436   */\n    tag_23:\n        /* \"#utility.yul\":307:311   */\n      0x00\n        /* \"#utility.yul\":345:347   */\n      0x20\n        /* \"#utility.yul\":334:343   */\n      dup3\n        /* \"#utility.yul\":330:348   */\n      add\n        /* \"#utility.yul\":322:348   */\n      swap1\n      pop\n        /* \"#utility.yul\":358:429   */\n      tag_96\n        /* \"#utility.yul\":426:427   */\n      0x00\n        /* \"#utility.yul\":415:424   */\n      dup4\n        /* \"#utility.yul\":411:428   */\n      add\n        /* \"#utility.yul\":402:408   */\n      dup5\n        /* \"#utility.yul\":358:429   */\n      tag_75\n      jump\t// in\n    tag_96:\n        /* \"#utility.yul\":214:436   */\n      swap3\n      swap2\n      pop\n      pop\n      jump\t// out\n        /* \"#utility.yul\":442:591   */\n    tag_76:\n        /* \"#utility.yul\":478:485   */\n      0x00\n        /* \"#utility.yul\":518:584   */\n      0xff00000000000000000000000000000000000000000000000000000000000000\n        /* \"#utility.yul\":511:516   */\n      dup3\n        /* \"#utility.yul\":507:585   */\n      and\n        /* \"#utility.yul\":496:585   */\n      swap1\n      pop\n        /* \"#utility.yul\":442:591   */\n      swap2\n      swap1\n      pop\n      jump\t// out\n        /* \"#utility.yul\":597:712   */\n    tag_77:\n        /* \"#utility.yul\":682:705   */\n      tag_99\n        /* \"#utility.yul\":699:704   */\n      dup2\n        /* \"#utility.yul\":682:705   */\n      tag_76\n      jump\t// in\n    tag_99:\n        /* \"#utility.yul\":677:680   */\n      dup3\n        /* \"#utility.yul\":670:706   */\n      mstore\n        /* \"#utility.yul\":597:712   */\n      pop\n      pop\n      jump\t// out\n        /* \"#utility.yul\":718:936   */\n    tag_27:\n        /* \"#utility.yul\":809:813   */\n      0x00\n        /* \"#utility.yul\":847:849   */\n      0x20\n        /* \"#utility.yul\":836:845   */\n      dup3\n        /* \"#utility.yul\":832:850   */\n      add\n        /* \"#utility.yul\":824:850   */\n      swap1\n      pop\n        /* \"#utility.yul\":860:929   */\n      tag_101\n        /* \"#utility.yul\":926:927   */\n      0x00\n        /* \"#utility.yul\":915:924   */\n      dup4\n        /* \"#utility.yul\":911:928   */\n      add\n        /* \"#utility.yul\":902:908   */\n      dup5\n        /* \"#utility.yul\":860:929   */\n      tag_77\n      jump\t// in\n    tag_101:\n        /* \"#utility.yul\":718:936   */\n      swap3\n      swap2\n      pop\n      pop\n      jump\t// out\n        /* \"#utility.yul\":942:1018   */\n    tag_78:\n        /* \"#utility.yul\":978:985   */\n      0x00\n        /* \"#utility.yul\":1007:1012   */\n      dup2\n        /* \"#utility.yul\":996:1012   */\n      swap1\n      pop\n        /* \"#utility.yul\":942:1018   */\n      swap2\n      swap1\n      pop\n      jump\t// out\n        /* \"#utility.yul\":1024:1139   */\n    tag_79:\n        /* \"#utility.yul\":1109:1132   */\n      tag_104\n        /* \"#utility.yul\":1126:1131   */\n      dup2\n        /* \"#utility.yul\":1109:1132   */\n      tag_78\n      jump\t// in\n    tag_104:\n        /* \"#utility.yul\":1104:1107   */\n      dup3\n        /* \"#utility.yul\":1097:1133   */\n      mstore\n        /* \"#utility.yul\":1024:1139   */\n      pop\n      pop\n      jump\t// out\n        /* \"#utility.yul\":1145:1363   */\n    tag_34:\n        /* \"#utility.yul\":1236:1240   */\n      0x00\n        /* \"#utility.yul\":1274:1276   */\n      0x20\n        /* \"#utility.yul\":1263:1272   */\n      dup3\n        /* \"#utility.yul\":1259:1277   */\n      add\n        /* \"#utility.yul\":1251:1277   */\n      swap1\n      pop\n        /* \"#utility.yul\":1287:1356   */\n      tag_106\n        /* \"#utility.yul\":1353:1354   */\n      0x00\n        /* \"#utility.yul\":1342:1351   */\n      dup4\n        /* \"#utility.yul\":1338:1355   */\n      add\n        /* \"#utility.yul\":1329:1335   */\n      dup5\n        /* \"#utility.yul\":1287:1356   */\n      tag_79\n      jump\t// in\n    tag_106:\n        /* \"#utility.yul\":1145:1363   */\n      swap3\n      swap2\n      pop\n      pop\n      jump\t// out\n        /* \"#utility.yul\":1369:1495   */\n    tag_80:\n        /* \"#utility.yul\":1406:1413   */\n      0x00\n        /* \"#utility.yul\":1446:1488   */\n      0xffffffffffffffffffffffffffffffffffffffff\n        /* \"#utility.yul\":1439:1444   */\n      dup3\n        /* \"#utility.yul\":1435:1489   */\n      and\n        /* \"#utility.yul\":1424:1489   */\n      swap1\n      pop\n        /* \"#utility.yul\":1369:1495   */\n      swap2\n      swap1\n      pop\n      jump\t// out\n        /* \"#utility.yul\":1501:1597   */\n    tag_81:\n        /* \"#utility.yul\":1538:1545   */\n      0x00\n        /* \"#utility.yul\":1567:1591   */\n      tag_109\n        /* \"#utility.yul\":1585:1590   */\n      dup3\n        /* \"#utility.yul\":1567:1591   */\n      tag_80\n      jump\t// in\n    tag_109:\n        /* \"#utility.yul\":1556:1591   */\n      swap1\n      pop\n        /* \"#utility.yul\":1501:1597   */\n      swap2\n      swap1\n      pop\n      jump\t// out\n        /* \"#utility.yul\":1603:1721   */\n    tag_82:\n        /* \"#utility.yul\":1690:1714   */\n      tag_111\n        /* \"#utility.yul\":1708:1713   */\n      dup2\n        /* \"#utility.yul\":1690:1714   */\n      tag_81\n      jump\t// in\n    tag_111:\n        /* \"#utility.yul\":1685:1688   */\n      dup3\n        /* \"#utility.yul\":1678:1715   */\n      mstore\n        /* \"#utility.yul\":1603:1721   */\n      pop\n      pop\n      jump\t// out\n        /* \"#utility.yul\":1727:1949   */\n    tag_41:\n        /* \"#utility.yul\":1820:1824   */\n      0x00\n        /* \"#utility.yul\":1858:1860   */\n      0x20\n        /* \"#utility.yul\":1847:1856   */\n      dup3\n        /* \"#utility.yul\":1843:1861   */\n      add\n        /* \"#utility.yul\":1835:1861   */\n      swap1\n      pop\n        /* \"#utility.yul\":1871:1942   */\n      tag_113\n        /* \"#utility.yul\":1939:1940   */\n      0x00\n        /* \"#utility.yul\":1928:1937   */\n      dup4\n        /* \"#utility.yul\":1924:1941   */\n      add\n        /* \"#utility.yul\":1915:1921   */\n      dup5\n        /* \"#utility.yul\":1871:1942   */\n      tag_82\n      jump\t// in\n    tag_113:\n        /* \"#utility.yul\":1727:1949   */\n      swap3\n      swap2\n      pop\n      pop\n      jump\t// out\n        /* \"#utility.yul\":1955:2032   */\n    tag_83:\n        /* \"#utility.yul\":1992:1999   */\n      0x00\n        /* \"#utility.yul\":2021:2026   */\n      dup2\n        /* \"#utility.yul\":2010:2026   */\n      swap1\n      pop\n        /* \"#utility.yul\":1955:2032   */\n      swap2\n      swap1\n      pop\n      jump\t// out\n        /* \"#utility.yul\":2038:2156   */\n    tag_84:\n        /* \"#utility.yul\":2125:2149   */\n      tag_116\n        /* \"#utility.yul\":2143:2148   */\n      dup2\n        /* \"#utility.yul\":2125:2149   */\n      tag_83\n      jump\t// in\n    tag_116:\n        /* \"#utility.yul\":2120:2123   */\n      dup3\n        /* \"#utility.yul\":2113:2150   */\n      mstore\n        /* \"#utility.yul\":2038:2156   */\n      pop\n      pop\n      jump\t// out\n        /* \"#utility.yul\":2162:2384   */\n    tag_45:\n        /* \"#utility.yul\":2255:2259   */\n      0x00\n        /* \"#utility.yul\":2293:2295   */\n      0x20\n        /* \"#utility.yul\":2282:2291   */\n      dup3\n        /* \"#utility.yul\":2278:2296   */\n      add\n        /* \"#utility.yul\":2270:2296   */\n      swap1\n      pop\n        /* \"#utility.yul\":2306:2377   */\n      tag_118\n        /* \"#utility.yul\":2374:2375   */\n      0x00\n        /* \"#utility.yul\":2363:2372   */\n      dup4\n        /* \"#utility.yul\":2359:2376   */\n      add\n        /* \"#utility.yul\":2350:2356   */\n      dup5\n        /* \"#utility.yul\":2306:2377   */\n      tag_84\n      jump\t// in\n    tag_118:\n        /* \"#utility.yul\":2162:2384   */\n      swap3\n      swap2\n      pop\n      pop\n      jump\t// out\n        /* \"#utility.yul\":2390:2480   */\n    tag_85:\n        /* \"#utility.yul\":2424:2431   */\n      0x00\n        /* \"#utility.yul\":2467:2472   */\n      dup2\n        /* \"#utility.yul\":2460:2473   */\n      iszero\n        /* \"#utility.yul\":2453:2474   */\n      iszero\n        /* \"#utility.yul\":2442:2474   */\n      swap1\n      pop\n        /* \"#utility.yul\":2390:2480   */\n      swap2\n      swap1\n      pop\n      jump\t// out\n        /* \"#utility.yul\":2486:2595   */\n    tag_86:\n        /* \"#utility.yul\":2567:2588   */\n      tag_121\n        /* \"#utility.yul\":2582:2587   */\n      dup2\n        /* \"#utility.yul\":2567:2588   */\n      tag_85\n      jump\t// in\n    tag_121:\n        /* \"#utility.yul\":2562:2565   */\n      dup3\n        /* \"#utility.yul\":2555:2589   */\n      mstore\n        /* \"#utility.yul\":2486:2595   */\n      pop\n      pop\n      jump\t// out\n        /* \"#utility.yul\":2601:2811   */\n    tag_49:\n        /* \"#utility.yul\":2688:2692   */\n      0x00\n        /* \"#utility.yul\":2726:2728   */\n      0x20\n        /* \"#utility.yul\":2715:2724   */\n      dup3\n        /* \"#utility.yul\":2711:2729   */\n      add\n        /* \"#utility.yul\":2703:2729   */\n      swap1\n      pop\n        /* \"#utility.yul\":2739:2804   */\n      tag_123\n        /* \"#utility.yul\":2801:2802   */\n      0x00\n        /* \"#utility.yul\":2790:2799   */\n      dup4\n        /* \"#utility.yul\":2786:2803   */\n      add\n        /* \"#utility.yul\":2777:2783   */\n      dup5\n        /* \"#utility.yul\":2739:2804   */\n      tag_86\n      jump\t// in\n    tag_123:\n        /* \"#utility.yul\":2601:2811   */\n      swap3\n      swap2\n      pop\n      pop\n      jump\t// out\n        /* \"#utility.yul\":2817:2967   */\n    tag_87:\n        /* \"#utility.yul\":2854:2861   */\n      0x00\n        /* \"#utility.yul\":2894:2960   */\n      0xffffffffffffffffffffffff0000000000000000000000000000000000000000\n        /* \"#utility.yul\":2887:2892   */\n      dup3\n        /* \"#utility.yul\":2883:2961   */\n      and\n        /* \"#utility.yul\":2872:2961   */\n      swap1\n      pop\n        /* \"#utility.yul\":2817:2967   */\n      swap2\n      swap1\n      pop\n      jump\t// out\n        /* \"#utility.yul\":2973:3091   */\n    tag_88:\n        /* \"#utility.yul\":3060:3084   */\n      tag_126\n        /* \"#utility.yul\":3078:3083   */\n      dup2\n        /* \"#utility.yul\":3060:3084   */\n      tag_87\n      jump\t// in\n    tag_126:\n        /* \"#utility.yul\":3055:3058   */\n      dup3\n        /* \"#utility.yul\":3048:3085   */\n      mstore\n        /* \"#utility.yul\":2973:3091   */\n      pop\n      pop\n      jump\t// out\n        /* \"#utility.yul\":3097:3319   */\n    tag_53:\n        /* \"#utility.yul\":3190:3194   */\n      0x00\n        /* \"#utility.yul\":3228:3230   */\n      0x20\n        /* \"#utility.yul\":3217:3226   */\n      dup3\n        /* \"#utility.yul\":3213:3231   */\n      add\n        /* \"#utility.yul\":3205:3231   */\n      swap1\n      pop\n        /* \"#utility.yul\":3241:3312   */\n      tag_128\n        /* \"#utility.yul\":3309:3310   */\n      0x00\n        /* \"#utility.yul\":3298:3307   */\n      dup4\n        /* \"#utility.yul\":3294:3311   */\n      add\n        /* \"#utility.yul\":3285:3291   */\n      dup5\n        /* \"#utility.yul\":3241:3312   */\n      tag_88\n      jump\t// in\n    tag_128:\n        /* \"#utility.yul\":3097:3319   */\n      swap3\n      swap2\n      pop\n      pop\n      jump\t// out\n        /* \"#utility.yul\":3325:3429   */\n    tag_89:\n        /* \"#utility.yul\":3370:3377   */\n      0x00\n        /* \"#utility.yul\":3399:3423   */\n      tag_130\n        /* \"#utility.yul\":3417:3422   */\n      dup3\n        /* \"#utility.yul\":3399:3423   */\n      tag_80\n      jump\t// in\n    tag_130:\n        /* \"#utility.yul\":3388:3423   */\n      swap1\n      pop\n        /* \"#utility.yul\":3325:3429   */\n      swap2\n      swap1\n      pop\n      jump\t// out\n        /* \"#utility.yul\":3435:3577   */\n    tag_90:\n        /* \"#utility.yul\":3538:3570   */\n      tag_132\n        /* \"#utility.yul\":3564:3569   */\n      dup2\n        /* \"#utility.yul\":3538:3570   */\n      tag_89\n      jump\t// in\n    tag_132:\n        /* \"#utility.yul\":3533:3536   */\n      dup3\n        /* \"#utility.yul\":3526:3571   */\n      mstore\n        /* \"#utility.yul\":3435:3577   */\n      pop\n      pop\n      jump\t// out\n        /* \"#utility.yul\":3583:3837   */\n    tag_60:\n        /* \"#utility.yul\":3692:3696   */\n      0x00\n        /* \"#utility.yul\":3730:3732   */\n      0x20\n        /* \"#utility.yul\":3719:3728   */\n      dup3\n        /* \"#utility.yul\":3715:3733   */\n      add\n        /* \"#utility.yul\":3707:3733   */\n      swap1\n      pop\n        /* \"#utility.yul\":3743:3830   */\n      tag_134\n        /* \"#utility.yul\":3827:3828   */\n      0x00\n        /* \"#utility.yul\":3816:3825   */\n      dup4\n        /* \"#utility.yul\":3812:3829   */\n      add\n        /* \"#utility.yul\":3803:3809   */\n      dup5\n        /* \"#utility.yul\":3743:3830   */\n      tag_90\n      jump\t// in\n    tag_134:\n        /* \"#utility.yul\":3583:3837   */\n      swap3\n      swap2\n      pop\n      pop\n      jump\t// out\n        /* \"#utility.yul\":3843:4023   */\n    tag_73:\n        /* \"#utility.yul\":3891:3968   */\n      0x4e487b7100000000000000000000000000000000000000000000000000000000\n        /* \"#utility.yul\":3888:3889   */\n      0x00\n        /* \"#utility.yul\":3881:3969   */\n      mstore\n        /* \"#utility.yul\":3988:3992   */\n      0x21\n        /* \"#utility.yul\":3985:3986   */\n      0x04\n        /* \"#utility.yul\":3978:3993   */\n      mstore\n        /* \"#utility.yul\":4012:4016   */\n      0x24\n        /* \"#utility.yul\":4009:4010   */\n      0x00\n        /* \"#utility.yul\":4002:4017   */\n      revert\n\n    auxdata: 0xa26469706673582212201adfb4612b2fb7617484ddf7c5106cd781266477aa1a7f4d3ead52467af83bc364736f6c63430008190033\n}\n",
				"bytecode": {
					"linkReferences": {},
					"object": "608060405260015f806101000a81548160ff0219169083151502179055507fffffffffffffffffffffffffffffffffffffffffffffffffffffffffffffffff6001556002805560026003556003546002541460045f6101000a81548160ff02191690831515021790555060025460015461007991906102af565b6005557317f6ad8ef982297579c203069c1dbffe4348c37260065f6101000a81548173ffffffffffffffffffffffffffffffffffffffff021916908373ffffffffffffffffffffffffffffffffffffffff16021790555060065f9054906101000a900473ffffffffffffffffffffffffffffffffffffffff1660075f6101000a81548173ffffffffffffffffffffffffffffffffffffffff021916908373ffffffffffffffffffffffffffffffffffffffff16021790555060075f9054906101000a900473ffffffffffffffffffffffffffffffffffffffff1673ffffffffffffffffffffffffffffffffffffffff16316008557f4d696e69536f6c696469747900000000000000000000000000000000000000006009556009546002602081106101a7576101a66102f0565b5b1a60f81b600a5f6101000a81548160ff021916908360f81c02179055507f4d696e69536f6c69646974790000000000000000000000000000000000000000600a60016101000a8154816bffffffffffffffffffffffff021916908360a01c02179055506009546002602081106102205761021f6102f0565b5b1a60f81b600a600d6101000a81548160ff021916908360f81c02179055505f600a600e6101000a81548160ff021916908360028111156102635761026261031d565b5b0217905550348015610273575f80fd5b5061034a565b5f819050919050565b7f4e487b71000000000000000000000000000000000000000000000000000000005f52601160045260245ffd5b5f6102b982610279565b91506102c483610279565b92508282019050828112155f8312168382125f8412151617156102ea576102e9610282565b5b92915050565b7f4e487b71000000000000000000000000000000000000000000000000000000005f52603260045260245ffd5b7f4e487b71000000000000000000000000000000000000000000000000000000005f52602160045260245ffd5b6105e0806103575f395ff3fe608060405234801561000f575f80fd5b50600436106100e8575f3560e01c806347535d7b1161008a578063ab43f8cd11610064578063ab43f8cd14610218578063b69ef8a814610236578063ee49500214610254578063ffae15ba14610272576100e8565b806347535d7b146101be5780635edb78a7146101dc578063a531f36a146101fa576100e8565b80632ddbd13a116100c65780632ddbd13a146101465780633b9eac4b146101645780633e1430af146101825780633f346102146101a0576100e8565b806301019958146100ec5780630add6ef21461010a57806315d4266c14610128575b5f80fd5b6100f4610290565b6040516101019190610398565b60405180910390f35b6101126102b8565b60405161011f91906103eb565b60405180910390f35b6101306102cb565b60405161013d9190610398565b60405180910390f35b61014e6102d1565b60405161015b919061041c565b60405180910390f35b61016c6102d7565b604051610179919061041c565b60405180910390f35b61018a6102dd565b6040516101979190610474565b60405180910390f35b6101a8610302565b6040516101b591906104a5565b60405180910390f35b6101c6610308565b6040516101d391906104d8565b60405180910390f35b6101e4610318565b6040516101f1919061052b565b60405180910390f35b61020261032b565b60405161020f9190610398565b60405180910390f35b610220610331565b60405161022d9190610564565b60405180910390f35b61023e610356565b60405161024b9190610398565b60405180910390f35b61025c61035c565b60405161026991906103eb565b60405180910390f35b61027a61036e565b60405161028791906104d8565b60405180910390f35b5f600a600e9054906101000a900460ff1660028111156102b3576102b261057d565b5b905090565b600a600d9054906101000a900460f81b81565b60025481565b60055481565b60015481565b60065f9054906101000a900473ffffffffffffffffffffffffffffffffffffffff1681565b60095481565b5f8054906101000a900460ff1681565b600a60019054906101000a900460a01b81565b60035481565b60075f9054906101000a900473ffffffffffffffffffffffffffffffffffffffff1681565b60085481565b600a5f9054906101000a900460f81b81565b60045f9054906101000a900460ff1681565b5f819050919050565b61039281610380565b82525050565b5f6020820190506103ab5f830184610389565b92915050565b5f7fff0000000000000000000000000000000000000000000000000000000000000082169050919050565b6103e5816103b1565b82525050565b5f6020820190506103fe5f8301846103dc565b92915050565b5f819050919050565b61041681610404565b82525050565b5f60208201905061042f5f83018461040d565b92915050565b5f73ffffffffffffffffffffffffffffffffffffffff82169050919050565b5f61045e82610435565b9050919050565b61046e81610454565b82525050565b5f6020820190506104875f830184610465565b92915050565b5f819050919050565b61049f8161048d565b82525050565b5f6020820190506104b85f830184610496565b92915050565b5f8115159050919050565b6104d2816104be565b82525050565b5f6020820190506104eb5f8301846104c9565b92915050565b5f7fffffffffffffffffffffffff000000000000000000000000000000000000000082169050919050565b610525816104f1565b82525050565b5f60208201905061053e5f83018461051c565b92915050565b5f61054e82610435565b9050919050565b61055e81610544565b82525050565b5f6020820190506105775f830184610555565b92915050565b7f4e487b71000000000000000000000000000000000000000000000000000000005f52602160045260245ffdfea26469706673582212201adfb4612b2fb7617484ddf7c5106cd781266477aa1a7f4d3ead52467af83bc364736f6c63430008190033",
					"opcodes": "PUSH1 0x80 PUSH1 0x40 MSTORE PUSH1 0x1 PUSH0 DUP1 PUSH2 0x100 EXP DUP2 SLOAD DUP2 PUSH1 0xFF MUL NOT AND SWAP1 DUP4 ISZERO ISZERO MUL OR SWAP1 SSTORE POP PUSH32 0xFFFFFFFFFFFFFFFFFFFFFFFFFFFFFFFFFFFFFFFFFFFFFFFFFFFFFFFFFFFFFFFF PUSH1 0x1 SSTORE PUSH1 0x2 DUP1 SSTORE PUSH1 0x2 PUSH1 0x3 SSTORE PUSH1 0x3 SLOAD PUSH1 0x2 SLOAD EQ PUSH1 0x4 PUSH0 PUSH2 0x100 EXP DUP2 SLOAD DUP2 PUSH1 0xFF MUL NOT AND SWAP1 DUP4 ISZERO ISZERO MUL OR SWAP1 SSTORE POP PUSH1 0x2 SLOAD PUSH1 0x1 SLOAD PUSH2 0x79 SWAP2 SWAP1 PUSH2 0x2AF JUMP JUMPDEST PUSH1 0x5 SSTORE PUSH20 0x17F6AD8EF982297579C203069C1DBFFE4348C372 PUSH1 0x6 PUSH0 PUSH2 0x100 EXP DUP2 SLOAD DUP2 PUSH20 0xFFFFFFFFFFFFFFFFFFFFFFFFFFFFFFFFFFFFFFFF MUL NOT AND SWAP1 DUP4 PUSH20 0xFFFFFFFFFFFFFFFFFFFFFFFFFFFFFFFFFFFFFFFF AND MUL OR SWAP1 SSTORE POP PUSH1 0x6 PUSH0 SWAP1 SLOAD SWAP1 PUSH2 0x100 EXP SWAP1 DIV PUSH20 0xFFFFFFFFFFFFFFFFFFFFFFFFFFFFFFFFFFFFFFFF AND PUSH1 0x7 PUSH0 PUSH2 0x100 EXP DUP2 SLOAD DUP2 PUSH20 0xFFFFFFFFFFFFFFFFFFFFFFFFFFFFFFFFFFFFFFFF MUL NOT AND SWAP1 DUP4 PUSH20 0xFFFFFFFFFFFFFFFFFFFFFFFFFFFFFFFFFFFFFFFF AND MUL OR SWAP1 SSTORE POP PUSH1 0x7 PUSH0 SWAP1 SLOAD SWAP1 PUSH2 0x100 EXP SWAP1 DIV PUSH20 0xFFFFFFFFFFFFFFFFFFFFFFFFFFFFFFFFFFFFFFFF AND PUSH20 0xFFFFFFFFFFFFFFFFFFFFFFFFFFFFFFFFFFFFFFFF AND BALANCE PUSH1 0x8 SSTORE PUSH32 0x4D696E69536F6C69646974790000000000000000000000000000000000000000 PUSH1 0x9 SSTORE PUSH1 0x9 SLOAD PUSH1 0x2 PUSH1 0x20 DUP2 LT PUSH2 0x1A7 JUMPI PUSH2 0x1A6 PUSH2 0x2F0 JUMP JUMPDEST JUMPDEST BYTE PUSH1 0xF8 SHL PUSH1 0xA PUSH0 PUSH2 0x100 EXP DUP2 SLOAD DUP2 PUSH1 0xFF MUL NOT AND SWAP1 DUP4 PUSH1 0xF8 SHR MUL OR SWAP1 SSTORE POP PUSH32 0x4D696E69536F6C69646974790000000000000000000000000000000000000000 PUSH1 0xA PUSH1 0x1 PUSH2 0x100 EXP DUP2 SLOAD DUP2 PUSH12 0xFFFFFFFFFFFFFFFFFFFFFFFF MUL NOT AND SWAP1 DUP4 PUSH1 0xA0 SHR MUL OR SWAP1 SSTORE POP PUSH1 0x9 SLOAD PUSH1 0x2 PUSH1 0x20 DUP2 LT PUSH2 0x220 JUMPI PUSH2 0x21F PUSH2 0x2F0 JUMP JUMPDEST JUMPDEST BYTE PUSH1 0xF8 SHL PUSH1 0xA PUSH1 0xD PUSH2 0x100 EXP DUP2 SLOAD DUP2 PUSH1 0xFF MUL NOT AND SWAP1 DUP4 PUSH1 0xF8 SHR MUL OR SWAP1 SSTORE POP PUSH0 PUSH1 0xA PUSH1 0xE PUSH2 0x100 EXP DUP2 SLOAD DUP2 PUSH1 0xFF MUL NOT AND SWAP1 DUP4 PUSH1 0x2 DUP2 GT ISZERO PUSH2 0x263 JUMPI PUSH2 0x262 PUSH2 0x31D JUMP JUMPDEST JUMPDEST MUL OR SWAP1 SSTORE POP CALLVALUE DUP1 ISZERO PUSH2 0x273 JUMPI PUSH0 DUP1 REVERT JUMPDEST POP PUSH2 0x34A JUMP JUMPDEST PUSH0 DUP2 SWAP1 POP SWAP2 SWAP1 POP JUMP JUMPDEST PUSH32 0x4E487B7100000000000000000000000000000000000000000000000000000000 PUSH0 MSTORE PUSH1 0x11 PUSH1 0x4 MSTORE PUSH1 0x24 PUSH0 REVERT JUMPDEST PUSH0 PUSH2 0x2B9 DUP3 PUSH2 0x279 JUMP JUMPDEST SWAP2 POP PUSH2 0x2C4 DUP4 PUSH2 0x279 JUMP JUMPDEST SWAP3 POP DUP3 DUP3 ADD SWAP1 POP DUP3 DUP2 SLT ISZERO PUSH0 DUP4 SLT AND DUP4 DUP3 SLT PUSH0 DUP5 SLT ISZERO AND OR ISZERO PUSH2 0x2EA JUMPI PUSH2 0x2E9 PUSH2 0x282 JUMP JUMPDEST JUMPDEST SWAP3 SWAP2 POP POP JUMP JUMPDEST PUSH32 0x4E487B7100000000000000000000000000000000000000000000000000000000 PUSH0 MSTORE PUSH1 0x32 PUSH1 0x4 MSTORE PUSH1 0x24 PUSH0 REVERT JUMPDEST PUSH32 0x4E487B7100000000000000000000000000000000000000000000000000000000 PUSH0 MSTORE PUSH1 0x21 PUSH1 0x4 MSTORE PUSH1 0x24 PUSH0 REVERT JUMPDEST PUSH2 0x5E0 DUP1 PUSH2 0x357 PUSH0 CODECOPY PUSH0 RETURN INVALID PUSH1 0x80 PUSH1 0x40 MSTORE CALLVALUE DUP1 ISZERO PUSH2 0xF JUMPI PUSH0 DUP1 REVERT JUMPDEST POP PUSH1 0x4 CALLDATASIZE LT PUSH2 0xE8 JUMPI PUSH0 CALLDATALOAD PUSH1 0xE0 SHR DUP1 PUSH4 0x47535D7B GT PUSH2 0x8A JUMPI DUP1 PUSH4 0xAB43F8CD GT PUSH2 0x64 JUMPI DUP1 PUSH4 0xAB43F8CD EQ PUSH2 0x218 JUMPI DUP1 PUSH4 0xB69EF8A8 EQ PUSH2 0x236 JUMPI DUP1 PUSH4 0xEE495002 EQ PUSH2 0x254 JUMPI DUP1 PUSH4 0xFFAE15BA EQ PUSH2 0x272 JUMPI PUSH2 0xE8 JUMP JUMPDEST DUP1 PUSH4 0x47535D7B EQ PUSH2 0x1BE JUMPI DUP1 PUSH4 0x5EDB78A7 EQ PUSH2 0x1DC JUMPI DUP1 PUSH4 0xA531F36A EQ PUSH2 0x1FA JUMPI PUSH2 0xE8 JUMP JUMPDEST DUP1 PUSH4 0x2DDBD13A GT PUSH2 0xC6 JUMPI DUP1 PUSH4 0x2DDBD13A EQ PUSH2 0x146 JUMPI DUP1 PUSH4 0x3B9EAC4B EQ PUSH2 0x164 JUMPI DUP1 PUSH4 0x3E1430AF EQ PUSH2 0x182 JUMPI DUP1 PUSH4 0x3F346102 EQ PUSH2 0x1A0 JUMPI PUSH2 0xE8 JUMP JUMPDEST DUP1 PUSH4 0x1019958 EQ PUSH2 0xEC JUMPI DUP1 PUSH4 0xADD6EF2 EQ PUSH2 0x10A JUMPI DUP1 PUSH4 0x15D4266C EQ PUSH2 0x128 JUMPI JUMPDEST PUSH0 DUP1 REVERT JUMPDEST PUSH2 0xF4 PUSH2 0x290 JUMP JUMPDEST PUSH1 0x40 MLOAD PUSH2 0x101 SWAP2 SWAP1 PUSH2 0x398 JUMP JUMPDEST PUSH1 0x40 MLOAD DUP1 SWAP2 SUB SWAP1 RETURN JUMPDEST PUSH2 0x112 PUSH2 0x2B8 JUMP JUMPDEST PUSH1 0x40 MLOAD PUSH2 0x11F SWAP2 SWAP1 PUSH2 0x3EB JUMP JUMPDEST PUSH1 0x40 MLOAD DUP1 SWAP2 SUB SWAP1 RETURN JUMPDEST PUSH2 0x130 PUSH2 0x2CB JUMP JUMPDEST PUSH1 0x40 MLOAD PUSH2 0x13D SWAP2 SWAP1 PUSH2 0x398 JUMP JUMPDEST PUSH1 0x40 MLOAD DUP1 SWAP2 SUB SWAP1 RETURN JUMPDEST PUSH2 0x14E PUSH2 0x2D1 JUMP JUMPDEST PUSH1 0x40 MLOAD PUSH2 0x15B SWAP2 SWAP1 PUSH2 0x41C JUMP JUMPDEST PUSH1 0x40 MLOAD DUP1 SWAP2 SUB SWAP1 RETURN JUMPDEST PUSH2 0x16C PUSH2 0x2D7 JUMP JUMPDEST PUSH1 0x40 MLOAD PUSH2 0x179 SWAP2 SWAP1 PUSH2 0x41C JUMP JUMPDEST PUSH1 0x40 MLOAD DUP1 SWAP2 SUB SWAP1 RETURN JUMPDEST PUSH2 0x18A PUSH2 0x2DD JUMP JUMPDEST PUSH1 0x40 MLOAD PUSH2 0x197 SWAP2 SWAP1 PUSH2 0x474 JUMP JUMPDEST PUSH1 0x40 MLOAD DUP1 SWAP2 SUB SWAP1 RETURN JUMPDEST PUSH2 0x1A8 PUSH2 0x302 JUMP JUMPDEST PUSH1 0x40 MLOAD PUSH2 0x1B5 SWAP2 SWAP1 PUSH2 0x4A5 JUMP JUMPDEST PUSH1 0x40 MLOAD DUP1 SWAP2 SUB SWAP1 RETURN JUMPDEST PUSH2 0x1C6 PUSH2 0x308 JUMP JUMPDEST PUSH1 0x40 MLOAD PUSH2 0x1D3 SWAP2 SWAP1 PUSH2 0x4D8 JUMP JUMPDEST PUSH1 0x40 MLOAD DUP1 SWAP2 SUB SWAP1 RETURN JUMPDEST PUSH2 0x1E4 PUSH2 0x318 JUMP JUMPDEST PUSH1 0x40 MLOAD PUSH2 0x1F1 SWAP2 SWAP1 PUSH2 0x52B JUMP JUMPDEST PUSH1 0x40 MLOAD DUP1 SWAP2 SUB SWAP1 RETURN JUMPDEST PUSH2 0x202 PUSH2 0x32B JUMP JUMPDEST PUSH1 0x40 MLOAD PUSH2 0x20F SWAP2 SWAP1 PUSH2 0x398 JUMP JUMPDEST PUSH1 0x40 MLOAD DUP1 SWAP2 SUB SWAP1 RETURN JUMPDEST PUSH2 0x220 PUSH2 0x331 JUMP JUMPDEST PUSH1 0x40 MLOAD PUSH2 0x22D SWAP2 SWAP1 PUSH2 0x564 JUMP JUMPDEST PUSH1 0x40 MLOAD DUP1 SWAP2 SUB SWAP1 RETURN JUMPDEST PUSH2 0x23E PUSH2 0x356 JUMP JUMPDEST PUSH1 0x40 MLOAD PUSH2 0x24B SWAP2 SWAP1 PUSH2 0x398 JUMP JUMPDEST PUSH1 0x40 MLOAD DUP1 SWAP2 SUB SWAP1 RETURN JUMPDEST PUSH2 0x25C PUSH2 0x35C JUMP JUMPDEST PUSH1 0x40 MLOAD PUSH2 0x269 SWAP2 SWAP1 PUSH2 0x3EB JUMP JUMPDEST PUSH1 0x40 MLOAD DUP1 SWAP2 SUB SWAP1 RETURN JUMPDEST PUSH2 0x27A PUSH2 0x36E JUMP JUMPDEST PUSH1 0x40 MLOAD PUSH2 0x287 SWAP2 SWAP1 PUSH2 0x4D8 JUMP JUMPDEST PUSH1 0x40 MLOAD DUP1 SWAP2 SUB SWAP1 RETURN JUMPDEST PUSH0 PUSH1 0xA PUSH1 0xE SWAP1 SLOAD SWAP1 PUSH2 0x100 EXP SWAP1 DIV PUSH1 0xFF AND PUSH1 0x2 DUP2 GT ISZERO PUSH2 0x2B3 JUMPI PUSH2 0x2B2 PUSH2 0x57D JUMP JUMPDEST JUMPDEST SWAP1 POP SWAP1 JUMP JUMPDEST PUSH1 0xA PUSH1 0xD SWAP1 SLOAD SWAP1 PUSH2 0x100 EXP SWAP1 DIV PUSH1 0xF8 SHL DUP2 JUMP JUMPDEST PUSH1 0x2 SLOAD DUP2 JUMP JUMPDEST PUSH1 0x5 SLOAD DUP2 JUMP JUMPDEST PUSH1 0x1 SLOAD DUP2 JUMP JUMPDEST PUSH1 0x6 PUSH0 SWAP1 SLOAD SWAP1 PUSH2 0x100 EXP SWAP1 DIV PUSH20 0xFFFFFFFFFFFFFFFFFFFFFFFFFFFFFFFFFFFFFFFF AND DUP2 JUMP JUMPDEST PUSH1 0x9 SLOAD DUP2 JUMP JUMPDEST PUSH0 DUP1 SLOAD SWAP1 PUSH2 0x100 EXP SWAP1 DIV PUSH1 0xFF AND DUP2 JUMP JUMPDEST PUSH1 0xA PUSH1 0x1 SWAP1 SLOAD SWAP1 PUSH2 0x100 EXP SWAP1 DIV PUSH1 0xA0 SHL DUP2 JUMP JUMPDEST PUSH1 0x3 SLOAD DUP2 JUMP JUMPDEST PUSH1 0x7 PUSH0 SWAP1 SLOAD SWAP1 PUSH2 0x100 EXP SWAP1 DIV PUSH20 0xFFFFFFFFFFFFFFFFFFFFFFFFFFFFFFFFFFFFFFFF AND DUP2 JUMP JUMPDEST PUSH1 0x8 SLOAD DUP2 JUMP JUMPDEST PUSH1 0xA PUSH0 SWAP1 SLOAD SWAP1 PUSH2 0x100 EXP SWAP1 DIV PUSH1 0xF8 SHL DUP2 JUMP JUMPDEST PUSH1 0x4 PUSH0 SWAP1 SLOAD SWAP1 PUSH2 0x100 EXP SWAP1 DIV PUSH1 0xFF AND DUP2 JUMP JUMPDEST PUSH0 DUP2 SWAP1 POP SWAP2 SWAP1 POP JUMP JUMPDEST PUSH2 0x392 DUP2 PUSH2 0x380 JUMP JUMPDEST DUP3 MSTORE POP POP JUMP JUMPDEST PUSH0 PUSH1 0x20 DUP3 ADD SWAP1 POP PUSH2 0x3AB PUSH0 DUP4 ADD DUP5 PUSH2 0x389 JUMP JUMPDEST SWAP3 SWAP2 POP POP JUMP JUMPDEST PUSH0 PUSH32 0xFF00000000000000000000000000000000000000000000000000000000000000 DUP3 AND SWAP1 POP SWAP2 SWAP1 POP JUMP JUMPDEST PUSH2 0x3E5 DUP2 PUSH2 0x3B1 JUMP JUMPDEST DUP3 MSTORE POP POP JUMP JUMPDEST PUSH0 PUSH1 0x20 DUP3 ADD SWAP1 POP PUSH2 0x3FE PUSH0 DUP4 ADD DUP5 PUSH2 0x3DC JUMP JUMPDEST SWAP3 SWAP2 POP POP JUMP JUMPDEST PUSH0 DUP2 SWAP1 POP SWAP2 SWAP1 POP JUMP JUMPDEST PUSH2 0x416 DUP2 PUSH2 0x404 JUMP JUMPDEST DUP3 MSTORE POP POP JUMP JUMPDEST PUSH0 PUSH1 0x20 DUP3 ADD SWAP1 POP PUSH2 0x42F PUSH0 DUP4 ADD DUP5 PUSH2 0x40D JUMP JUMPDEST SWAP3 SWAP2 POP POP JUMP JUMPDEST PUSH0 PUSH20 0xFFFFFFFFFFFFFFFFFFFFFFFFFFFFFFFFFFFFFFFF DUP3 AND SWAP1 POP SWAP2 SWAP1 POP JUMP JUMPDEST PUSH0 PUSH2 0x45E DUP3 PUSH2 0x435 JUMP JUMPDEST SWAP1 POP SWAP2 SWAP1 POP JUMP JUMPDEST PUSH2 0x46E DUP2 PUSH2 0x454 JUMP JUMPDEST DUP3 MSTORE POP POP JUMP JUMPDEST PUSH0 PUSH1 0x20 DUP3 ADD SWAP1 POP PUSH2 0x487 PUSH0 DUP4 ADD DUP5 PUSH2 0x465 JUMP JUMPDEST SWAP3 SWAP2 POP POP JUMP JUMPDEST PUSH0 DUP2 SWAP1 POP SWAP2 SWAP1 POP JUMP JUMPDEST PUSH2 0x49F DUP2 PUSH2 0x48D JUMP JUMPDEST DUP3 MSTORE POP POP JUMP JUMPDEST PUSH0 PUSH1 0x20 DUP3 ADD SWAP1 POP PUSH2 0x4B8 PUSH0 DUP4 ADD DUP5 PUSH2 0x496 JUMP JUMPDEST SWAP3 SWAP2 POP POP JUMP JUMPDEST PUSH0 DUP2 ISZERO ISZERO SWAP1 POP SWAP2 SWAP1 POP JUMP JUMPDEST PUSH2 0x4D2 DUP2 PUSH2 0x4BE JUMP JUMPDEST DUP3 MSTORE POP POP JUMP JUMPDEST PUSH0 PUSH1 0x20 DUP3 ADD SWAP1 POP PUSH2 0x4EB PUSH0 DUP4 ADD DUP5 PUSH2 0x4C9 JUMP JUMPDEST SWAP3 SWAP2 POP POP JUMP JUMPDEST PUSH0 PUSH32 0xFFFFFFFFFFFFFFFFFFFFFFFF0000000000000000000000000000000000000000 DUP3 AND SWAP1 POP SWAP2 SWAP1 POP JUMP JUMPDEST PUSH2 0x525 DUP2 PUSH2 0x4F1 JUMP JUMPDEST DUP3 MSTORE POP POP JUMP JUMPDEST PUSH0 PUSH1 0x20 DUP3 ADD SWAP1 POP PUSH2 0x53E PUSH0 DUP4 ADD DUP5 PUSH2 0x51C JUMP JUMPDEST SWAP3 SWAP2 POP POP JUMP JUMPDEST PUSH0 PUSH2 0x54E DUP3 PUSH2 0x435 JUMP JUMPDEST SWAP1 POP SWAP2 SWAP1 POP JUMP JUMPDEST PUSH2 0x55E DUP2 PUSH2 0x544 JUMP JUMPDEST DUP3 MSTORE POP POP JUMP JUMPDEST PUSH0 PUSH1 0x20 DUP3 ADD SWAP1 POP PUSH2 0x577 PUSH0 DUP4 ADD DUP5 PUSH2 0x555 JUMP JUMPDEST SWAP3 SWAP2 POP POP JUMP JUMPDEST PUSH32 0x4E487B7100000000000000000000000000000000000000000000000000000000 PUSH0 MSTORE PUSH1 0x21 PUSH1 0x4 MSTORE PUSH1 0x24 PUSH0 REVERT INVALID LOG2 PUSH5 0x6970667358 0x22 SLT KECCAK256 BYTE 0xDF 0xB4 PUSH2 0x2B2F 0xB7 PUSH2 0x7484 0xDD 0xF7 0xC5 LT PUSH13 0xD781266477AA1A7F4D3EAD5246 PUSH27 0xF83BC364736F6C6343000819003300000000000000000000000000 "
				},
				"gasEstimates": {
					"creation": {
						"codeDepositCost": "300800",
						"executionCost": "infinite",
						"totalCost": "infinite"
					},
					"external": {
						"_byte12()": "2562",
						"_byte32()": "2514",
						"ad()": "2575",
						"ad1()": "2530",
						"b1()": "2532",
						"b2()": "2563",
						"balance()": "2469",
						"e()": "2554",
						"enumToUint()": "2568",
						"isOpen()": "2486",
						"num1()": "2470",
						"num2()": "2493",
						"num3()": "2492",
						"total()": "2448"
					}
				},
				"methodIdentifiers": {
					"_byte12()": "5edb78a7",
					"_byte32()": "3f346102",
					"ad()": "3e1430af",
					"ad1()": "ab43f8cd",
					"b1()": "ee495002",
					"b2()": "0add6ef2",
					"balance()": "b69ef8a8",
					"e()": "ffae15ba",
					"enumToUint()": "01019958",
					"isOpen()": "47535d7b",
					"num1()": "3b9eac4b",
					"num2()": "15d4266c",
					"num3()": "a531f36a",
					"total()": "2ddbd13a"
				}
			},
			"storageLayout": {
				"storage": [
					{
						"astId": 4,
						"contract": "contract/valueType.sol:varibleType",
						"label": "isOpen",
						"offset": 0,
						"slot": "0",
						"type": "t_bool"
					},
					{
						"astId": 8,
						"contract": "contract/valueType.sol:varibleType",
						"label": "num1",
						"offset": 0,
						"slot": "1",
						"type": "t_int256"
					},
					{
						"astId": 11,
						"contract": "contract/valueType.sol:varibleType",
						"label": "num2",
						"offset": 0,
						"slot": "2",
						"type": "t_uint256"
					},
					{
						"astId": 14,
						"contract": "contract/valueType.sol:varibleType",
						"label": "num3",
						"offset": 0,
						"slot": "3",
						"type": "t_uint256"
					},
					{
						"astId": 19,
						"contract": "contract/valueType.sol:varibleType",
						"label": "e",
						"offset": 0,
						"slot": "4",
						"type": "t_bool"
					},
					{
						"astId": 27,
						"contract": "contract/valueType.sol:varibleType",
						"label": "total",
						"offset": 0,
						"slot": "5",
						"type": "t_int256"
					},
					{
						"astId": 30,
						"contract": "contract/valueType.sol:varibleType",
						"label": "ad",
						"offset": 0,
						"slot": "6",
						"type": "t_address"
					},
					{
						"astId": 36,
						"contract": "contract/valueType.sol:varibleType",
						"label": "ad1",
						"offset": 0,
						"slot": "7",
						"type": "t_address_payable"
					},
					{
						"astId": 40,
						"contract": "contract/valueType.sol:varibleType",
						"label": "balance",
						"offset": 0,
						"slot": "8",
						"type": "t_uint256"
					},
					{
						"astId": 43,
						"contract": "contract/valueType.sol:varibleType",
						"label": "_byte32",
						"offset": 0,
						"slot": "9",
						"type": "t_bytes32"
					},
					{
						"astId": 48,
						"contract": "contract/valueType.sol:varibleType",
						"label": "b1",
						"offset": 0,
						"slot": "10",
						"type": "t_bytes1"
					},
					{
						"astId": 51,
						"contract": "contract/valueType.sol:varibleType",
						"label": "_byte12",
						"offset": 1,
						"slot": "10",
						"type": "t_bytes12"
					},
					{
						"astId": 56,
						"contract": "contract/valueType.sol:varibleType",
						"label": "b2",
						"offset": 13,
						"slot": "10",
						"type": "t_bytes1"
					},
					{
						"astId": 65,
						"contract": "contract/valueType.sol:varibleType",
						"label": "action",
						"offset": 14,
						"slot": "10",
						"type": "t_enum(ActionSet)60"
					}
				],
				"types": {
					"t_address": {
						"encoding": "inplace",
						"label": "address",
						"numberOfBytes": "20"
					},
					"t_address_payable": {
						"encoding": "inplace",
						"label": "address payable",
						"numberOfBytes": "20"
					},
					"t_bool": {
						"encoding": "inplace",
						"label": "bool",
						"numberOfBytes": "1"
					},
					"t_bytes1": {
						"encoding": "inplace",
						"label": "bytes1",
						"numberOfBytes": "1"
					},
					"t_bytes12": {
						"encoding": "inplace",
						"label": "bytes12",
						"numberOfBytes": "12"
					},
					"t_bytes32": {
						"encoding": "inplace",
						"label": "bytes32",
						"numberOfBytes": "32"
					},
					"t_enum(ActionSet)60": {
						"encoding": "inplace",
						"label": "enum varibleType.ActionSet",
						"numberOfBytes": "1"
					},
					"t_int256": {
						"encoding": "inplace",
						"label": "int256",
						"numberOfBytes": "32"
					},
					"t_uint256": {
						"encoding": "inplace",
						"label": "uint256",
						"numberOfBytes": "32"
					}
				}
			},
			"userdoc": {
				"kind": "user",
				"methods": {},
				"version": 1
			}
		}
	}
}